{
  "abi": [
    {
      "inputs": [
        {
          "internalType": "address",
          "name": "_stakingToken",
          "type": "address"
        }
      ],
      "stateMutability": "nonpayable",
      "type": "constructor"
    },
    {
      "inputs": [
        {
          "internalType": "uint256",
          "name": "prod1",
          "type": "uint256"
        },
        {
          "internalType": "uint256",
          "name": "denominator",
          "type": "uint256"
        }
      ],
      "name": "PRBMath__MulDivOverflow",
      "type": "error"
    },
    {
      "anonymous": false,
      "inputs": [
        {
          "indexed": false,
          "internalType": "string",
          "name": "message",
          "type": "string"
        },
        {
          "indexed": false,
          "internalType": "uint256",
          "name": "data",
          "type": "uint256"
        }
      ],
      "name": "Log",
      "type": "event"
    },
    {
      "anonymous": false,
      "inputs": [
        {
          "indexed": true,
          "internalType": "uint256",
          "name": "amount",
          "type": "uint256"
        },
        {
          "indexed": false,
          "internalType": "uint256",
          "name": "timestamp",
          "type": "uint256"
        }
      ],
      "name": "NewReward",
      "type": "event"
    },
    {
      "anonymous": false,
      "inputs": [
        {
          "indexed": true,
          "internalType": "address",
          "name": "user",
          "type": "address"
        },
        {
          "indexed": false,
          "internalType": "uint256",
          "name": "amount",
          "type": "uint256"
        },
        {
          "indexed": false,
          "internalType": "uint256",
          "name": "timestamp",
          "type": "uint256"
        }
      ],
      "name": "NewStake",
      "type": "event"
    },
    {
      "anonymous": false,
      "inputs": [
        {
          "indexed": true,
          "internalType": "address",
          "name": "user",
          "type": "address"
        },
        {
          "indexed": false,
          "internalType": "uint256",
          "name": "amount",
          "type": "uint256"
        },
        {
          "indexed": false,
          "internalType": "uint256",
          "name": "timestamp",
          "type": "uint256"
        }
      ],
      "name": "NewUnstake",
      "type": "event"
    },
    {
      "anonymous": false,
      "inputs": [
        {
          "indexed": true,
          "internalType": "address",
          "name": "previousOwner",
          "type": "address"
        },
        {
          "indexed": true,
          "internalType": "address",
          "name": "newOwner",
          "type": "address"
        }
      ],
      "name": "OwnershipTransferred",
      "type": "event"
    },
    {
      "inputs": [
        {
          "internalType": "uint256",
          "name": "_amount",
          "type": "uint256"
        }
      ],
      "name": "depositReward",
      "outputs": [],
      "stateMutability": "nonpayable",
      "type": "function"
    },
    {
      "inputs": [],
      "name": "ftgToken",
      "outputs": [
        {
          "internalType": "contract IERC20",
          "name": "",
          "type": "address"
        }
      ],
      "stateMutability": "view",
      "type": "function"
    },
    {
      "inputs": [
        {
          "internalType": "address",
          "name": "_stakeholderAddress",
          "type": "address"
        }
      ],
      "name": "getAccountRewardInfo",
      "outputs": [
        {
          "internalType": "uint256",
          "name": "",
          "type": "uint256"
        },
        {
          "internalType": "uint256",
          "name": "",
          "type": "uint256"
        }
      ],
      "stateMutability": "view",
      "type": "function"
    },
    {
      "inputs": [
        {
          "internalType": "address",
          "name": "_stakeholderAddress",
          "type": "address"
        }
      ],
      "name": "getStakes",
      "outputs": [
        {
          "components": [
            {
              "internalType": "uint256",
              "name": "totalStaked",
              "type": "uint256"
            },
            {
              "internalType": "uint256",
              "name": "timestamp",
              "type": "uint256"
            }
          ],
          "internalType": "struct FTGStaking.Staking[]",
          "name": "",
          "type": "tuple[]"
        }
      ],
      "stateMutability": "view",
      "type": "function"
    },
    {
      "inputs": [],
      "name": "owner",
      "outputs": [
        {
          "internalType": "address",
          "name": "",
          "type": "address"
        }
      ],
      "stateMutability": "view",
      "type": "function"
    },
    {
      "inputs": [],
      "name": "renounceOwnership",
      "outputs": [],
      "stateMutability": "nonpayable",
      "type": "function"
    },
    {
      "inputs": [
        {
          "internalType": "uint256",
          "name": "",
          "type": "uint256"
        }
      ],
      "name": "rewardsList",
      "outputs": [
        {
          "internalType": "uint256",
          "name": "rewards",
          "type": "uint256"
        },
        {
          "internalType": "uint256",
          "name": "rewardPer1BFTG",
          "type": "uint256"
        },
        {
          "internalType": "uint256",
          "name": "timestamp",
          "type": "uint256"
        }
      ],
      "stateMutability": "view",
      "type": "function"
    },
    {
      "inputs": [
        {
          "internalType": "uint256",
          "name": "_amount",
          "type": "uint256"
        },
        {
          "internalType": "enum FTGStaking.StakeType",
          "name": "_stakeType",
          "type": "uint8"
        }
      ],
      "name": "stake",
      "outputs": [],
      "stateMutability": "nonpayable",
      "type": "function"
    },
    {
      "inputs": [
        {
          "internalType": "uint256",
          "name": "_amount",
          "type": "uint256"
        }
      ],
      "name": "stakeReward",
      "outputs": [],
      "stateMutability": "nonpayable",
      "type": "function"
    },
    {
      "inputs": [
        {
          "internalType": "address",
          "name": "",
          "type": "address"
        }
      ],
      "name": "stakeholders",
      "outputs": [
        {
          "internalType": "uint256",
          "name": "totalStaked",
          "type": "uint256"
        },
        {
          "internalType": "uint256",
          "name": "totalReward",
          "type": "uint256"
        },
        {
          "internalType": "uint256",
          "name": "lastRewardUpdate",
          "type": "uint256"
        }
      ],
      "stateMutability": "view",
      "type": "function"
    },
    {
      "inputs": [],
      "name": "totalFTGStaked",
      "outputs": [
        {
          "internalType": "uint256",
          "name": "",
          "type": "uint256"
        }
      ],
      "stateMutability": "view",
      "type": "function"
    },
    {
      "inputs": [
        {
          "internalType": "address",
          "name": "newOwner",
          "type": "address"
        }
      ],
      "name": "transferOwnership",
      "outputs": [],
      "stateMutability": "nonpayable",
      "type": "function"
    },
    {
      "inputs": [
        {
          "internalType": "uint256",
          "name": "_amount",
          "type": "uint256"
        },
        {
          "internalType": "enum FTGStaking.StakeType",
          "name": "_stakeType",
          "type": "uint8"
        }
      ],
      "name": "unstake",
      "outputs": [],
      "stateMutability": "nonpayable",
      "type": "function"
    },
    {
      "inputs": [],
      "name": "updateReward",
      "outputs": [],
      "stateMutability": "nonpayable",
      "type": "function"
    },
    {
      "inputs": [],
      "name": "viewRewardsList",
      "outputs": [
        {
          "components": [
            {
              "internalType": "uint256",
              "name": "rewards",
              "type": "uint256"
            },
            {
              "internalType": "uint256",
              "name": "rewardPer1BFTG",
              "type": "uint256"
            },
            {
              "internalType": "uint256",
              "name": "timestamp",
              "type": "uint256"
            }
          ],
          "internalType": "struct FTGStaking.Reward[]",
          "name": "",
          "type": "tuple[]"
        }
      ],
      "stateMutability": "view",
      "type": "function"
    },
    {
      "inputs": [],
      "name": "withdrawReward",
      "outputs": [],
      "stateMutability": "nonpayable",
      "type": "function"
    }
  ],
  "bytecode": "60a060405234801561001057600080fd5b5060405161193838038061193883398101604081905261002f91610081565b600080546001600160a01b031916339081178255604051909182917f8be0079c531659141344cd1fd0a4f28419497f9722a3daafe3b4186f6b6457e0908290a3506001600160a01b03166080526100b1565b60006020828403121561009357600080fd5b81516001600160a01b03811681146100aa57600080fd5b9392505050565b6080516118496100ef60003960008181610184015281816103260152818161040901528181610848015281816109d90152610bb001526118496000f3fe608060405234801561001057600080fd5b50600436106101005760003560e01c8063bc9699f111610097578063c885bc5811610066578063c885bc581461028f578063dc72bb9714610297578063f2fde38b146102aa578063f36c0a72146102bd57600080fd5b8063bc9699f11461020a578063bd39e0151461021d578063bd9098701461024b578063c07cfca91461026057600080fd5b80631e2720ff116100d35780631e2720ff146101be578063715018a6146101d15780637ba6f458146101d95780638da5cb5b146101f957600080fd5b806305e3aba9146101055780630b3c215e1461012157806310087fb11461016a5780631dbf3eb51461017f575b600080fd5b61010e60015481565b6040519081526020015b60405180910390f35b61015561012f366004611610565b6001600160a01b0316600090815260036020526040902060018101546002909101549091565b60408051928352602083019190915201610118565b61017d610178366004611639565b6102c5565b005b6101a67f000000000000000000000000000000000000000000000000000000000000000081565b6040516001600160a01b039091168152602001610118565b61017d6101cc36600461166d565b6105fa565b61017d610606565b6101ec6101e7366004611610565b6106aa565b6040516101189190611686565b6000546001600160a01b03166101a6565b61017d610218366004611639565b610735565b61023061022b36600461166d565b610ab8565b60408051938452602084019290925290820152606001610118565b610253610aeb565b60405161011891906116d5565b61023061026e366004611610565b60036020526000908152604090208054600182015460029092015490919083565b61017d610b68565b61017d6102a536600461166d565b610c1d565b61017d6102b8366004611610565b610cbd565b61017d610dd7565b600082116103115760405162461bcd60e51b815260206004820152601460248201527343616e6e6f74207374616b65206e6f7468696e6760601b60448201526064015b60405180910390fd5b6040516370a0823160e01b81523360048201527f00000000000000000000000000000000000000000000000000000000000000006001600160a01b0316906370a0823190602401602060405180830381865afa158015610375573d6000803e3d6000fd5b505050506040513d601f19601f820116820180604052508101906103999190611721565b82106103e75760405162461bcd60e51b815260206004820152601860248201527f496e73756666696369656e74204654472042616c616e636500000000000000006044820152606401610308565b6040516323b872dd60e01b8152336004820152306024820152604481018390527f00000000000000000000000000000000000000000000000000000000000000006001600160a01b0316906323b872dd906064016020604051808303816000875af115801561045a573d6000803e3d6000fd5b505050506040513d601f19601f8201168201806040525081019061047e919061173a565b5060008160018111156104935761049361175c565b036105f6573360009081526003602081905260408220015481036104c9576104be6005846064610de4565b90506104c981610eb7565b60006104d58285611788565b336000908152600360205260408120805492935083929091906104f990849061179b565b925050819055508060016000828254610512919061179b565b90915550506001546040516000805160206117f483398151915291610561916040808252600e908201526d1d1bdd185b119511d4dd185ad95960921b6060820152602081019190915260800190565b60405180910390a13360008181526003602081815260408084208151808301835281548152428185018181529290950180546001818101835591885294909620905160029094020192835551919093015590517f55595f34fd936311e65eca0a752ee70068b8992fdf64918aff1b6345689c84e4916105eb91859190918252602082015260400190565b60405180910390a250505b5050565b61060381610eb7565b50565b6000546001600160a01b031633146106605760405162461bcd60e51b815260206004820181905260248201527f4f776e61626c653a2063616c6c6572206973206e6f7420746865206f776e65726044820152606401610308565b600080546040516001600160a01b03909116907f8be0079c531659141344cd1fd0a4f28419497f9722a3daafe3b4186f6b6457e0908390a3600080546001600160a01b0319169055565b6001600160a01b03811660009081526003602081815260408084209092018054835181840281018401909452808452606094919290919084015b8282101561072a578382906000526020600020906002020160405180604001604052908160008201548152602001600182015481525050815260200190600101906106e4565b505050509050919050565b60008160018111156107495761074961175c565b036105f65733600090815260036020526040812054900361079c5760405162461bcd60e51b815260206004820152600d60248201526c139bc8119511c81cdd185ad959609a1b6044820152606401610308565b336000908152600360205260409020548210610932573360009081526003602052604081205460018054919283926107d5908490611788565b9091555050336000908152600360208181526040808420848155815180830190925284825242828401908152930180546001818101835591865292852091516002938402909201918255925192019190915561083390836064610de4565b905061083e81610eb7565b6001600160a01b037f00000000000000000000000000000000000000000000000000000000000000001663a9059cbb336108788486611788565b6040516001600160e01b031960e085901b1681526001600160a01b03909216600483015260248201526044016020604051808303816000875af11580156108c3573d6000803e3d6000fd5b505050506040513d601f19601f820116820180604052508101906108e7919061173a565b5033600081815260036020526040908190205490517fd6954c073268a41234627942b1c88cbf53c8bdc07009b12907400074e65d3e9b916105eb914290918252602082015260400190565b3360009081526003602052604081208054849290610951908490611788565b90915550503360009081526003602081815260408084208151808301909252805482524282840190815293018054600181810183559186529285209151600290930290910191825591519082015580548492906109af908490611788565b90915550600090506109c46002846064610de4565b90506109cf81610eb7565b6001600160a01b037f00000000000000000000000000000000000000000000000000000000000000001663a9059cbb33610a098487611788565b6040516001600160e01b031960e085901b1681526001600160a01b03909216600483015260248201526044016020604051808303816000875af1158015610a54573d6000803e3d6000fd5b505050506040513d601f19601f82011682018060405250810190610a78919061173a565b506040805184815242602082015233917fd6954c073268a41234627942b1c88cbf53c8bdc07009b12907400074e65d3e9b910160405180910390a2505050565b60028181548110610ac857600080fd5b600091825260209091206003909102018054600182015460029092015490925083565b60606002805480602002602001604051908101604052809291908181526020016000905b82821015610b5f5783829060005260206000209060030201604051806060016040529081600082015481526020016001820154815260200160028201548152505081526020019060010190610b0f565b50505050905090565b610b73336000611121565b3360008181526003602052604080822060010180549290555163a9059cbb60e01b8152600481019290925260248201819052906001600160a01b037f0000000000000000000000000000000000000000000000000000000000000000169063a9059cbb906044016020604051808303816000875af1158015610bf9573d6000803e3d6000fd5b505050506040513d601f19601f820116820180604052508101906105f6919061173a565b610c28336000611121565b3360009081526003602052604081206001018054839290610c4a908490611788565b90915550503360009081526003602052604081208054839290610c6e90849061179b565b9091555050336000908152600360208181526040808420815180830190925280548252428284019081529301805460018181018355918652929094209051600290920201908155905191015550565b6000546001600160a01b03163314610d175760405162461bcd60e51b815260206004820181905260248201527f4f776e61626c653a2063616c6c6572206973206e6f7420746865206f776e65726044820152606401610308565b6001600160a01b038116610d7c5760405162461bcd60e51b815260206004820152602660248201527f4f776e61626c653a206e6577206f776e657220697320746865207a65726f206160448201526564647265737360d01b6064820152608401610308565b600080546040516001600160a01b03808516939216917f8be0079c531659141344cd1fd0a4f28419497f9722a3daafe3b4186f6b6457e091a3600080546001600160a01b0319166001600160a01b0392909216919091179055565b610de2336000611121565b565b6000808060001985870985870292508281108382030391505080600003610e1e57838281610e1457610e146117ae565b0492505050610eb0565b838110610e4857604051631dcf306360e21b81526004810182905260248101859052604401610308565b600084868809851960019081018716968790049682860381900495909211909303600082900391909104909201919091029190911760038402600290811880860282030280860282030280860282030280860282030280860282030280860290910302029150505b9392505050565b6001541561104057604080518181526007818301526617dc995dd85c9960ca1b60608201526020810183905290516000805160206117f48339815191529181900360800190a16000610f10633b9aca0083600154610de4565b90506000805160206117f483398151915281604051610f5a91906040808252600e908201526d726577617264506572314246544760901b6060820152602081019190915260800190565b60405180910390a1604080516060810182528381526020808201848152428385018181526002805460018101825560009190915294517f405787fa12a823e0f2b7631cc41b3ba8828b3321ca811111fa75cd3aa3bb5ace60039096029586015591517f405787fa12a823e0f2b7631cc41b3ba8828b3321ca811111fa75cd3aa3bb5acf85015590517f405787fa12a823e0f2b7631cc41b3ba8828b3321ca811111fa75cd3aa3bb5ad090930192909255915190815283917fe5f54735f9ce2571eeffc4ce867a47d7cd77ab6ca4d979f9fc33e445a39ebf3e910160405180910390a25050565b6040805160608101825282815260006020820181815242838501818152600280546001810182559452935160039093027f405787fa12a823e0f2b7631cc41b3ba8828b3321ca811111fa75cd3aa3bb5ace81019390935590517f405787fa12a823e0f2b7631cc41b3ba8828b3321ca811111fa75cd3aa3bb5acf83015591517f405787fa12a823e0f2b7631cc41b3ba8828b3321ca811111fa75cd3aa3bb5ad090910155905182917fe5f54735f9ce2571eeffc4ce867a47d7cd77ab6ca4d979f9fc33e445a39ebf3e9161111691815260200190565b60405180910390a250565b60008160018111156111355761113561175c565b036105f6576001600160a01b03821660009081526003602052604081206002015461115f906114ba565b90506000805160206117f4833981519152816040516111a691906040808252600b908201526a7374617274496e6465783d60a81b6060820152602081019190915260800190565b60405180910390a16000815b60025481101561141c5760006111ec86600284815481106111d5576111d56117c4565b90600052602060002090600302016002015461153a565b90506000805160206117f483398151915281604051611250919060408082526022908201527f7374616b65686f6c6465725374616b65496e646578417452657761726454696d606082015261653d60f01b6080820152602081019190915260a00190565b60405180910390a16001600160a01b0386166000908152600360208190526040822001805483908110611285576112856117c4565b90600052602060002090600202016000015490506000805160206117f4833981519152816040516112f091906040808252601d908201527f7374616b65686f6c6465725374616b65417452657761726474696d653d0000006060820152602081019190915260800190565b60405180910390a16000805160206117f48339815191526002848154811061131a5761131a6117c4565b90600052602060002090600302016001015460405161137391906040808252601e908201527f726577617264734c6973745b695d2e72657761726450657231424654473d00006060820152602081019190915260800190565b60405180910390a16113ae60028481548110611391576113916117c4565b90600052602060002090600302016001015482633b9aca00610de4565b6113b8908561179b565b93506000805160206117f4833981519152846040516113ff91906040808252600b908201526a7265776172647353756d3d60a81b6060820152602081019190915260800190565b60405180910390a150508080611414906117da565b9150506111b2565b50604080518181526011818301527066696e616c207265776172647353756d3d60781b60608201526020810183905290516000805160206117f48339815191529181900360800190a16001600160a01b0384166000908152600360205260408120600101805483929061149090849061179b565b9091555050506001600160a01b038316600090815260036020526040902042600290910155505050565b60025460009081906114cd5760006114dc565b6002546114dc90600190611788565b90505b82600282815481106114f3576114f36117c4565b9060005260206000209060030201600201541015801561151257508015155b1561152057600019016114df565b6000811161152f576001610eb0565b610eb081600161179b565b6001600160a01b038216600090815260036020819052604082200154819061156357600061158c565b6001600160a01b0384166000908152600360208190526040909120015461158c90600190611788565b90505b8260036000866001600160a01b03166001600160a01b0316815260200190815260200160002060030182815481106115c9576115c96117c4565b9060005260206000209060020201600101541180156115e757508015155b156115f5576000190161158f565b60008111611604576000611606565b805b9150505b92915050565b60006020828403121561162257600080fd5b81356001600160a01b038116811461160457600080fd5b6000806040838503121561164c57600080fd5b8235915060208301356002811061166257600080fd5b809150509250929050565b60006020828403121561167f57600080fd5b5035919050565b602080825282518282018190526000919060409081850190868401855b828110156116c8578151805185528601518685015292840192908501906001016116a3565b5091979650505050505050565b602080825282518282018190526000919060409081850190868401855b828110156116c857815180518552868101518786015285015185850152606090930192908501906001016116f2565b60006020828403121561173357600080fd5b5051919050565b60006020828403121561174c57600080fd5b8151801515811461160457600080fd5b634e487b7160e01b600052602160045260246000fd5b634e487b7160e01b600052601160045260246000fd5b8181038181111561160a5761160a611772565b8082018082111561160a5761160a611772565b634e487b7160e01b600052601260045260246000fd5b634e487b7160e01b600052603260045260246000fd5b6000600182016117ec576117ec611772565b506001019056fedd970dd9b5bfe707922155b058a407655cb18288b807e2216442bca8ad83d6b5a2646970667358221220ad68d79602287353e6a524fffe7dcac829ed598f43f125d2a5685d704e9dafc564736f6c63430008110033",
  "bytecodeSha1": "f2639aec6f995cd8e47a2dd6f3e701734bbb26d0",
  "compiler": {
    "evm_version": "istanbul",
    "optimizer": {
      "enabled": true,
      "runs": 200
    },
    "version": "0.8.17+commit.8df45f5f"
  },
  "contractName": "FTGStaking",
  "language": "Solidity",
  "natspec": {
    "errors": {
      "PRBMath__MulDivOverflow(uint256,uint256)": [
        {
          "notice": "Emitted when the result overflows uint256."
        }
      ]
    },
    "kind": "dev",
    "methods": {
      "owner()": {
        "details": "Returns the address of the current owner."
      },
      "renounceOwnership()": {
        "details": "Leaves the contract without owner. It will not be possible to call `onlyOwner` functions anymore. Can only be called by the current owner. NOTE: Renouncing ownership will leave the contract without an owner, thereby removing any functionality that is only available to the owner."
      },
      "transferOwnership(address)": {
        "details": "Transfers ownership of the contract to a new account (`newOwner`). Can only be called by the current owner."
      }
    },
    "version": 1
  },
  "opcodes": "PUSH1 0x80 PUSH1 0x40 MSTORE CALLVALUE DUP1 ISZERO PUSH2 0x10 JUMPI PUSH1 0x0 DUP1 REVERT JUMPDEST POP PUSH1 0x4 CALLDATASIZE LT PUSH2 0x100 JUMPI PUSH1 0x0 CALLDATALOAD PUSH1 0xE0 SHR DUP1 PUSH4 0xBC9699F1 GT PUSH2 0x97 JUMPI DUP1 PUSH4 0xC885BC58 GT PUSH2 0x66 JUMPI DUP1 PUSH4 0xC885BC58 EQ PUSH2 0x28F JUMPI DUP1 PUSH4 0xDC72BB97 EQ PUSH2 0x297 JUMPI DUP1 PUSH4 0xF2FDE38B EQ PUSH2 0x2AA JUMPI DUP1 PUSH4 0xF36C0A72 EQ PUSH2 0x2BD JUMPI PUSH1 0x0 DUP1 REVERT JUMPDEST DUP1 PUSH4 0xBC9699F1 EQ PUSH2 0x20A JUMPI DUP1 PUSH4 0xBD39E015 EQ PUSH2 0x21D JUMPI DUP1 PUSH4 0xBD909870 EQ PUSH2 0x24B JUMPI DUP1 PUSH4 0xC07CFCA9 EQ PUSH2 0x260 JUMPI PUSH1 0x0 DUP1 REVERT JUMPDEST DUP1 PUSH4 0x1E2720FF GT PUSH2 0xD3 JUMPI DUP1 PUSH4 0x1E2720FF EQ PUSH2 0x1BE JUMPI DUP1 PUSH4 0x715018A6 EQ PUSH2 0x1D1 JUMPI DUP1 PUSH4 0x7BA6F458 EQ PUSH2 0x1D9 JUMPI DUP1 PUSH4 0x8DA5CB5B EQ PUSH2 0x1F9 JUMPI PUSH1 0x0 DUP1 REVERT JUMPDEST DUP1 PUSH4 0x5E3ABA9 EQ PUSH2 0x105 JUMPI DUP1 PUSH4 0xB3C215E EQ PUSH2 0x121 JUMPI DUP1 PUSH4 0x10087FB1 EQ PUSH2 0x16A JUMPI DUP1 PUSH4 0x1DBF3EB5 EQ PUSH2 0x17F JUMPI JUMPDEST PUSH1 0x0 DUP1 REVERT JUMPDEST PUSH2 0x10E PUSH1 0x1 SLOAD DUP2 JUMP JUMPDEST PUSH1 0x40 MLOAD SWAP1 DUP2 MSTORE PUSH1 0x20 ADD JUMPDEST PUSH1 0x40 MLOAD DUP1 SWAP2 SUB SWAP1 RETURN JUMPDEST PUSH2 0x155 PUSH2 0x12F CALLDATASIZE PUSH1 0x4 PUSH2 0x1610 JUMP JUMPDEST PUSH1 0x1 PUSH1 0x1 PUSH1 0xA0 SHL SUB AND PUSH1 0x0 SWAP1 DUP2 MSTORE PUSH1 0x3 PUSH1 0x20 MSTORE PUSH1 0x40 SWAP1 KECCAK256 PUSH1 0x1 DUP2 ADD SLOAD PUSH1 0x2 SWAP1 SWAP2 ADD SLOAD SWAP1 SWAP2 JUMP JUMPDEST PUSH1 0x40 DUP1 MLOAD SWAP3 DUP4 MSTORE PUSH1 0x20 DUP4 ADD SWAP2 SWAP1 SWAP2 MSTORE ADD PUSH2 0x118 JUMP JUMPDEST PUSH2 0x17D PUSH2 0x178 CALLDATASIZE PUSH1 0x4 PUSH2 0x1639 JUMP JUMPDEST PUSH2 0x2C5 JUMP JUMPDEST STOP JUMPDEST PUSH2 0x1A6 PUSH32 0x0 DUP2 JUMP JUMPDEST PUSH1 0x40 MLOAD PUSH1 0x1 PUSH1 0x1 PUSH1 0xA0 SHL SUB SWAP1 SWAP2 AND DUP2 MSTORE PUSH1 0x20 ADD PUSH2 0x118 JUMP JUMPDEST PUSH2 0x17D PUSH2 0x1CC CALLDATASIZE PUSH1 0x4 PUSH2 0x166D JUMP JUMPDEST PUSH2 0x5FA JUMP JUMPDEST PUSH2 0x17D PUSH2 0x606 JUMP JUMPDEST PUSH2 0x1EC PUSH2 0x1E7 CALLDATASIZE PUSH1 0x4 PUSH2 0x1610 JUMP JUMPDEST PUSH2 0x6AA JUMP JUMPDEST PUSH1 0x40 MLOAD PUSH2 0x118 SWAP2 SWAP1 PUSH2 0x1686 JUMP JUMPDEST PUSH1 0x0 SLOAD PUSH1 0x1 PUSH1 0x1 PUSH1 0xA0 SHL SUB AND PUSH2 0x1A6 JUMP JUMPDEST PUSH2 0x17D PUSH2 0x218 CALLDATASIZE PUSH1 0x4 PUSH2 0x1639 JUMP JUMPDEST PUSH2 0x735 JUMP JUMPDEST PUSH2 0x230 PUSH2 0x22B CALLDATASIZE PUSH1 0x4 PUSH2 0x166D JUMP JUMPDEST PUSH2 0xAB8 JUMP JUMPDEST PUSH1 0x40 DUP1 MLOAD SWAP4 DUP5 MSTORE PUSH1 0x20 DUP5 ADD SWAP3 SWAP1 SWAP3 MSTORE SWAP1 DUP3 ADD MSTORE PUSH1 0x60 ADD PUSH2 0x118 JUMP JUMPDEST PUSH2 0x253 PUSH2 0xAEB JUMP JUMPDEST PUSH1 0x40 MLOAD PUSH2 0x118 SWAP2 SWAP1 PUSH2 0x16D5 JUMP JUMPDEST PUSH2 0x230 PUSH2 0x26E CALLDATASIZE PUSH1 0x4 PUSH2 0x1610 JUMP JUMPDEST PUSH1 0x3 PUSH1 0x20 MSTORE PUSH1 0x0 SWAP1 DUP2 MSTORE PUSH1 0x40 SWAP1 KECCAK256 DUP1 SLOAD PUSH1 0x1 DUP3 ADD SLOAD PUSH1 0x2 SWAP1 SWAP3 ADD SLOAD SWAP1 SWAP2 SWAP1 DUP4 JUMP JUMPDEST PUSH2 0x17D PUSH2 0xB68 JUMP JUMPDEST PUSH2 0x17D PUSH2 0x2A5 CALLDATASIZE PUSH1 0x4 PUSH2 0x166D JUMP JUMPDEST PUSH2 0xC1D JUMP JUMPDEST PUSH2 0x17D PUSH2 0x2B8 CALLDATASIZE PUSH1 0x4 PUSH2 0x1610 JUMP JUMPDEST PUSH2 0xCBD JUMP JUMPDEST PUSH2 0x17D PUSH2 0xDD7 JUMP JUMPDEST PUSH1 0x0 DUP3 GT PUSH2 0x311 JUMPI PUSH1 0x40 MLOAD PUSH3 0x461BCD PUSH1 0xE5 SHL DUP2 MSTORE PUSH1 0x20 PUSH1 0x4 DUP3 ADD MSTORE PUSH1 0x14 PUSH1 0x24 DUP3 ADD MSTORE PUSH20 0x43616E6E6F74207374616B65206E6F7468696E67 PUSH1 0x60 SHL PUSH1 0x44 DUP3 ADD MSTORE PUSH1 0x64 ADD JUMPDEST PUSH1 0x40 MLOAD DUP1 SWAP2 SUB SWAP1 REVERT JUMPDEST PUSH1 0x40 MLOAD PUSH4 0x70A08231 PUSH1 0xE0 SHL DUP2 MSTORE CALLER PUSH1 0x4 DUP3 ADD MSTORE PUSH32 0x0 PUSH1 0x1 PUSH1 0x1 PUSH1 0xA0 SHL SUB AND SWAP1 PUSH4 0x70A08231 SWAP1 PUSH1 0x24 ADD PUSH1 0x20 PUSH1 0x40 MLOAD DUP1 DUP4 SUB DUP2 DUP7 GAS STATICCALL ISZERO DUP1 ISZERO PUSH2 0x375 JUMPI RETURNDATASIZE PUSH1 0x0 DUP1 RETURNDATACOPY RETURNDATASIZE PUSH1 0x0 REVERT JUMPDEST POP POP POP POP PUSH1 0x40 MLOAD RETURNDATASIZE PUSH1 0x1F NOT PUSH1 0x1F DUP3 ADD AND DUP3 ADD DUP1 PUSH1 0x40 MSTORE POP DUP2 ADD SWAP1 PUSH2 0x399 SWAP2 SWAP1 PUSH2 0x1721 JUMP JUMPDEST DUP3 LT PUSH2 0x3E7 JUMPI PUSH1 0x40 MLOAD PUSH3 0x461BCD PUSH1 0xE5 SHL DUP2 MSTORE PUSH1 0x20 PUSH1 0x4 DUP3 ADD MSTORE PUSH1 0x18 PUSH1 0x24 DUP3 ADD MSTORE PUSH32 0x496E73756666696369656E74204654472042616C616E63650000000000000000 PUSH1 0x44 DUP3 ADD MSTORE PUSH1 0x64 ADD PUSH2 0x308 JUMP JUMPDEST PUSH1 0x40 MLOAD PUSH4 0x23B872DD PUSH1 0xE0 SHL DUP2 MSTORE CALLER PUSH1 0x4 DUP3 ADD MSTORE ADDRESS PUSH1 0x24 DUP3 ADD MSTORE PUSH1 0x44 DUP2 ADD DUP4 SWAP1 MSTORE PUSH32 0x0 PUSH1 0x1 PUSH1 0x1 PUSH1 0xA0 SHL SUB AND SWAP1 PUSH4 0x23B872DD SWAP1 PUSH1 0x64 ADD PUSH1 0x20 PUSH1 0x40 MLOAD DUP1 DUP4 SUB DUP2 PUSH1 0x0 DUP8 GAS CALL ISZERO DUP1 ISZERO PUSH2 0x45A JUMPI RETURNDATASIZE PUSH1 0x0 DUP1 RETURNDATACOPY RETURNDATASIZE PUSH1 0x0 REVERT JUMPDEST POP POP POP POP PUSH1 0x40 MLOAD RETURNDATASIZE PUSH1 0x1F NOT PUSH1 0x1F DUP3 ADD AND DUP3 ADD DUP1 PUSH1 0x40 MSTORE POP DUP2 ADD SWAP1 PUSH2 0x47E SWAP2 SWAP1 PUSH2 0x173A JUMP JUMPDEST POP PUSH1 0x0 DUP2 PUSH1 0x1 DUP2 GT ISZERO PUSH2 0x493 JUMPI PUSH2 0x493 PUSH2 0x175C JUMP JUMPDEST SUB PUSH2 0x5F6 JUMPI CALLER PUSH1 0x0 SWAP1 DUP2 MSTORE PUSH1 0x3 PUSH1 0x20 DUP2 SWAP1 MSTORE PUSH1 0x40 DUP3 KECCAK256 ADD SLOAD DUP2 SUB PUSH2 0x4C9 JUMPI PUSH2 0x4BE PUSH1 0x5 DUP5 PUSH1 0x64 PUSH2 0xDE4 JUMP JUMPDEST SWAP1 POP PUSH2 0x4C9 DUP2 PUSH2 0xEB7 JUMP JUMPDEST PUSH1 0x0 PUSH2 0x4D5 DUP3 DUP6 PUSH2 0x1788 JUMP JUMPDEST CALLER PUSH1 0x0 SWAP1 DUP2 MSTORE PUSH1 0x3 PUSH1 0x20 MSTORE PUSH1 0x40 DUP2 KECCAK256 DUP1 SLOAD SWAP3 SWAP4 POP DUP4 SWAP3 SWAP1 SWAP2 SWAP1 PUSH2 0x4F9 SWAP1 DUP5 SWAP1 PUSH2 0x179B JUMP JUMPDEST SWAP3 POP POP DUP2 SWAP1 SSTORE POP DUP1 PUSH1 0x1 PUSH1 0x0 DUP3 DUP3 SLOAD PUSH2 0x512 SWAP2 SWAP1 PUSH2 0x179B JUMP JUMPDEST SWAP1 SWAP2 SSTORE POP POP PUSH1 0x1 SLOAD PUSH1 0x40 MLOAD PUSH1 0x0 DUP1 MLOAD PUSH1 0x20 PUSH2 0x17F4 DUP4 CODECOPY DUP2 MLOAD SWAP2 MSTORE SWAP2 PUSH2 0x561 SWAP2 PUSH1 0x40 DUP1 DUP3 MSTORE PUSH1 0xE SWAP1 DUP3 ADD MSTORE PUSH14 0x1D1BDD185B119511D4DD185AD959 PUSH1 0x92 SHL PUSH1 0x60 DUP3 ADD MSTORE PUSH1 0x20 DUP2 ADD SWAP2 SWAP1 SWAP2 MSTORE PUSH1 0x80 ADD SWAP1 JUMP JUMPDEST PUSH1 0x40 MLOAD DUP1 SWAP2 SUB SWAP1 LOG1 CALLER PUSH1 0x0 DUP2 DUP2 MSTORE PUSH1 0x3 PUSH1 0x20 DUP2 DUP2 MSTORE PUSH1 0x40 DUP1 DUP5 KECCAK256 DUP2 MLOAD DUP1 DUP4 ADD DUP4 MSTORE DUP2 SLOAD DUP2 MSTORE TIMESTAMP DUP2 DUP6 ADD DUP2 DUP2 MSTORE SWAP3 SWAP1 SWAP6 ADD DUP1 SLOAD PUSH1 0x1 DUP2 DUP2 ADD DUP4 SSTORE SWAP2 DUP9 MSTORE SWAP5 SWAP1 SWAP7 KECCAK256 SWAP1 MLOAD PUSH1 0x2 SWAP1 SWAP5 MUL ADD SWAP3 DUP4 SSTORE MLOAD SWAP2 SWAP1 SWAP4 ADD SSTORE SWAP1 MLOAD PUSH32 0x55595F34FD936311E65ECA0A752EE70068B8992FDF64918AFF1B6345689C84E4 SWAP2 PUSH2 0x5EB SWAP2 DUP6 SWAP2 SWAP1 SWAP2 DUP3 MSTORE PUSH1 0x20 DUP3 ADD MSTORE PUSH1 0x40 ADD SWAP1 JUMP JUMPDEST PUSH1 0x40 MLOAD DUP1 SWAP2 SUB SWAP1 LOG2 POP POP JUMPDEST POP POP JUMP JUMPDEST PUSH2 0x603 DUP2 PUSH2 0xEB7 JUMP JUMPDEST POP JUMP JUMPDEST PUSH1 0x0 SLOAD PUSH1 0x1 PUSH1 0x1 PUSH1 0xA0 SHL SUB AND CALLER EQ PUSH2 0x660 JUMPI PUSH1 0x40 MLOAD PUSH3 0x461BCD PUSH1 0xE5 SHL DUP2 MSTORE PUSH1 0x20 PUSH1 0x4 DUP3 ADD DUP2 SWAP1 MSTORE PUSH1 0x24 DUP3 ADD MSTORE PUSH32 0x4F776E61626C653A2063616C6C6572206973206E6F7420746865206F776E6572 PUSH1 0x44 DUP3 ADD MSTORE PUSH1 0x64 ADD PUSH2 0x308 JUMP JUMPDEST PUSH1 0x0 DUP1 SLOAD PUSH1 0x40 MLOAD PUSH1 0x1 PUSH1 0x1 PUSH1 0xA0 SHL SUB SWAP1 SWAP2 AND SWAP1 PUSH32 0x8BE0079C531659141344CD1FD0A4F28419497F9722A3DAAFE3B4186F6B6457E0 SWAP1 DUP4 SWAP1 LOG3 PUSH1 0x0 DUP1 SLOAD PUSH1 0x1 PUSH1 0x1 PUSH1 0xA0 SHL SUB NOT AND SWAP1 SSTORE JUMP JUMPDEST PUSH1 0x1 PUSH1 0x1 PUSH1 0xA0 SHL SUB DUP2 AND PUSH1 0x0 SWAP1 DUP2 MSTORE PUSH1 0x3 PUSH1 0x20 DUP2 DUP2 MSTORE PUSH1 0x40 DUP1 DUP5 KECCAK256 SWAP1 SWAP3 ADD DUP1 SLOAD DUP4 MLOAD DUP2 DUP5 MUL DUP2 ADD DUP5 ADD SWAP1 SWAP5 MSTORE DUP1 DUP5 MSTORE PUSH1 0x60 SWAP5 SWAP2 SWAP3 SWAP1 SWAP2 SWAP1 DUP5 ADD JUMPDEST DUP3 DUP3 LT ISZERO PUSH2 0x72A JUMPI DUP4 DUP3 SWAP1 PUSH1 0x0 MSTORE PUSH1 0x20 PUSH1 0x0 KECCAK256 SWAP1 PUSH1 0x2 MUL ADD PUSH1 0x40 MLOAD DUP1 PUSH1 0x40 ADD PUSH1 0x40 MSTORE SWAP1 DUP2 PUSH1 0x0 DUP3 ADD SLOAD DUP2 MSTORE PUSH1 0x20 ADD PUSH1 0x1 DUP3 ADD SLOAD DUP2 MSTORE POP POP DUP2 MSTORE PUSH1 0x20 ADD SWAP1 PUSH1 0x1 ADD SWAP1 PUSH2 0x6E4 JUMP JUMPDEST POP POP POP POP SWAP1 POP SWAP2 SWAP1 POP JUMP JUMPDEST PUSH1 0x0 DUP2 PUSH1 0x1 DUP2 GT ISZERO PUSH2 0x749 JUMPI PUSH2 0x749 PUSH2 0x175C JUMP JUMPDEST SUB PUSH2 0x5F6 JUMPI CALLER PUSH1 0x0 SWAP1 DUP2 MSTORE PUSH1 0x3 PUSH1 0x20 MSTORE PUSH1 0x40 DUP2 KECCAK256 SLOAD SWAP1 SUB PUSH2 0x79C JUMPI PUSH1 0x40 MLOAD PUSH3 0x461BCD PUSH1 0xE5 SHL DUP2 MSTORE PUSH1 0x20 PUSH1 0x4 DUP3 ADD MSTORE PUSH1 0xD PUSH1 0x24 DUP3 ADD MSTORE PUSH13 0x139BC8119511C81CDD185AD959 PUSH1 0x9A SHL PUSH1 0x44 DUP3 ADD MSTORE PUSH1 0x64 ADD PUSH2 0x308 JUMP JUMPDEST CALLER PUSH1 0x0 SWAP1 DUP2 MSTORE PUSH1 0x3 PUSH1 0x20 MSTORE PUSH1 0x40 SWAP1 KECCAK256 SLOAD DUP3 LT PUSH2 0x932 JUMPI CALLER PUSH1 0x0 SWAP1 DUP2 MSTORE PUSH1 0x3 PUSH1 0x20 MSTORE PUSH1 0x40 DUP2 KECCAK256 SLOAD PUSH1 0x1 DUP1 SLOAD SWAP2 SWAP3 DUP4 SWAP3 PUSH2 0x7D5 SWAP1 DUP5 SWAP1 PUSH2 0x1788 JUMP JUMPDEST SWAP1 SWAP2 SSTORE POP POP CALLER PUSH1 0x0 SWAP1 DUP2 MSTORE PUSH1 0x3 PUSH1 0x20 DUP2 DUP2 MSTORE PUSH1 0x40 DUP1 DUP5 KECCAK256 DUP5 DUP2 SSTORE DUP2 MLOAD DUP1 DUP4 ADD SWAP1 SWAP3 MSTORE DUP5 DUP3 MSTORE TIMESTAMP DUP3 DUP5 ADD SWAP1 DUP2 MSTORE SWAP4 ADD DUP1 SLOAD PUSH1 0x1 DUP2 DUP2 ADD DUP4 SSTORE SWAP2 DUP7 MSTORE SWAP3 DUP6 KECCAK256 SWAP2 MLOAD PUSH1 0x2 SWAP4 DUP5 MUL SWAP1 SWAP3 ADD SWAP2 DUP3 SSTORE SWAP3 MLOAD SWAP3 ADD SWAP2 SWAP1 SWAP2 SSTORE PUSH2 0x833 SWAP1 DUP4 PUSH1 0x64 PUSH2 0xDE4 JUMP JUMPDEST SWAP1 POP PUSH2 0x83E DUP2 PUSH2 0xEB7 JUMP JUMPDEST PUSH1 0x1 PUSH1 0x1 PUSH1 0xA0 SHL SUB PUSH32 0x0 AND PUSH4 0xA9059CBB CALLER PUSH2 0x878 DUP5 DUP7 PUSH2 0x1788 JUMP JUMPDEST PUSH1 0x40 MLOAD PUSH1 0x1 PUSH1 0x1 PUSH1 0xE0 SHL SUB NOT PUSH1 0xE0 DUP6 SWAP1 SHL AND DUP2 MSTORE PUSH1 0x1 PUSH1 0x1 PUSH1 0xA0 SHL SUB SWAP1 SWAP3 AND PUSH1 0x4 DUP4 ADD MSTORE PUSH1 0x24 DUP3 ADD MSTORE PUSH1 0x44 ADD PUSH1 0x20 PUSH1 0x40 MLOAD DUP1 DUP4 SUB DUP2 PUSH1 0x0 DUP8 GAS CALL ISZERO DUP1 ISZERO PUSH2 0x8C3 JUMPI RETURNDATASIZE PUSH1 0x0 DUP1 RETURNDATACOPY RETURNDATASIZE PUSH1 0x0 REVERT JUMPDEST POP POP POP POP PUSH1 0x40 MLOAD RETURNDATASIZE PUSH1 0x1F NOT PUSH1 0x1F DUP3 ADD AND DUP3 ADD DUP1 PUSH1 0x40 MSTORE POP DUP2 ADD SWAP1 PUSH2 0x8E7 SWAP2 SWAP1 PUSH2 0x173A JUMP JUMPDEST POP CALLER PUSH1 0x0 DUP2 DUP2 MSTORE PUSH1 0x3 PUSH1 0x20 MSTORE PUSH1 0x40 SWAP1 DUP2 SWAP1 KECCAK256 SLOAD SWAP1 MLOAD PUSH32 0xD6954C073268A41234627942B1C88CBF53C8BDC07009B12907400074E65D3E9B SWAP2 PUSH2 0x5EB SWAP2 TIMESTAMP SWAP1 SWAP2 DUP3 MSTORE PUSH1 0x20 DUP3 ADD MSTORE PUSH1 0x40 ADD SWAP1 JUMP JUMPDEST CALLER PUSH1 0x0 SWAP1 DUP2 MSTORE PUSH1 0x3 PUSH1 0x20 MSTORE PUSH1 0x40 DUP2 KECCAK256 DUP1 SLOAD DUP5 SWAP3 SWAP1 PUSH2 0x951 SWAP1 DUP5 SWAP1 PUSH2 0x1788 JUMP JUMPDEST SWAP1 SWAP2 SSTORE POP POP CALLER PUSH1 0x0 SWAP1 DUP2 MSTORE PUSH1 0x3 PUSH1 0x20 DUP2 DUP2 MSTORE PUSH1 0x40 DUP1 DUP5 KECCAK256 DUP2 MLOAD DUP1 DUP4 ADD SWAP1 SWAP3 MSTORE DUP1 SLOAD DUP3 MSTORE TIMESTAMP DUP3 DUP5 ADD SWAP1 DUP2 MSTORE SWAP4 ADD DUP1 SLOAD PUSH1 0x1 DUP2 DUP2 ADD DUP4 SSTORE SWAP2 DUP7 MSTORE SWAP3 DUP6 KECCAK256 SWAP2 MLOAD PUSH1 0x2 SWAP1 SWAP4 MUL SWAP1 SWAP2 ADD SWAP2 DUP3 SSTORE SWAP2 MLOAD SWAP1 DUP3 ADD SSTORE DUP1 SLOAD DUP5 SWAP3 SWAP1 PUSH2 0x9AF SWAP1 DUP5 SWAP1 PUSH2 0x1788 JUMP JUMPDEST SWAP1 SWAP2 SSTORE POP PUSH1 0x0 SWAP1 POP PUSH2 0x9C4 PUSH1 0x2 DUP5 PUSH1 0x64 PUSH2 0xDE4 JUMP JUMPDEST SWAP1 POP PUSH2 0x9CF DUP2 PUSH2 0xEB7 JUMP JUMPDEST PUSH1 0x1 PUSH1 0x1 PUSH1 0xA0 SHL SUB PUSH32 0x0 AND PUSH4 0xA9059CBB CALLER PUSH2 0xA09 DUP5 DUP8 PUSH2 0x1788 JUMP JUMPDEST PUSH1 0x40 MLOAD PUSH1 0x1 PUSH1 0x1 PUSH1 0xE0 SHL SUB NOT PUSH1 0xE0 DUP6 SWAP1 SHL AND DUP2 MSTORE PUSH1 0x1 PUSH1 0x1 PUSH1 0xA0 SHL SUB SWAP1 SWAP3 AND PUSH1 0x4 DUP4 ADD MSTORE PUSH1 0x24 DUP3 ADD MSTORE PUSH1 0x44 ADD PUSH1 0x20 PUSH1 0x40 MLOAD DUP1 DUP4 SUB DUP2 PUSH1 0x0 DUP8 GAS CALL ISZERO DUP1 ISZERO PUSH2 0xA54 JUMPI RETURNDATASIZE PUSH1 0x0 DUP1 RETURNDATACOPY RETURNDATASIZE PUSH1 0x0 REVERT JUMPDEST POP POP POP POP PUSH1 0x40 MLOAD RETURNDATASIZE PUSH1 0x1F NOT PUSH1 0x1F DUP3 ADD AND DUP3 ADD DUP1 PUSH1 0x40 MSTORE POP DUP2 ADD SWAP1 PUSH2 0xA78 SWAP2 SWAP1 PUSH2 0x173A JUMP JUMPDEST POP PUSH1 0x40 DUP1 MLOAD DUP5 DUP2 MSTORE TIMESTAMP PUSH1 0x20 DUP3 ADD MSTORE CALLER SWAP2 PUSH32 0xD6954C073268A41234627942B1C88CBF53C8BDC07009B12907400074E65D3E9B SWAP2 ADD PUSH1 0x40 MLOAD DUP1 SWAP2 SUB SWAP1 LOG2 POP POP POP JUMP JUMPDEST PUSH1 0x2 DUP2 DUP2 SLOAD DUP2 LT PUSH2 0xAC8 JUMPI PUSH1 0x0 DUP1 REVERT JUMPDEST PUSH1 0x0 SWAP2 DUP3 MSTORE PUSH1 0x20 SWAP1 SWAP2 KECCAK256 PUSH1 0x3 SWAP1 SWAP2 MUL ADD DUP1 SLOAD PUSH1 0x1 DUP3 ADD SLOAD PUSH1 0x2 SWAP1 SWAP3 ADD SLOAD SWAP1 SWAP3 POP DUP4 JUMP JUMPDEST PUSH1 0x60 PUSH1 0x2 DUP1 SLOAD DUP1 PUSH1 0x20 MUL PUSH1 0x20 ADD PUSH1 0x40 MLOAD SWAP1 DUP2 ADD PUSH1 0x40 MSTORE DUP1 SWAP3 SWAP2 SWAP1 DUP2 DUP2 MSTORE PUSH1 0x20 ADD PUSH1 0x0 SWAP1 JUMPDEST DUP3 DUP3 LT ISZERO PUSH2 0xB5F JUMPI DUP4 DUP3 SWAP1 PUSH1 0x0 MSTORE PUSH1 0x20 PUSH1 0x0 KECCAK256 SWAP1 PUSH1 0x3 MUL ADD PUSH1 0x40 MLOAD DUP1 PUSH1 0x60 ADD PUSH1 0x40 MSTORE SWAP1 DUP2 PUSH1 0x0 DUP3 ADD SLOAD DUP2 MSTORE PUSH1 0x20 ADD PUSH1 0x1 DUP3 ADD SLOAD DUP2 MSTORE PUSH1 0x20 ADD PUSH1 0x2 DUP3 ADD SLOAD DUP2 MSTORE POP POP DUP2 MSTORE PUSH1 0x20 ADD SWAP1 PUSH1 0x1 ADD SWAP1 PUSH2 0xB0F JUMP JUMPDEST POP POP POP POP SWAP1 POP SWAP1 JUMP JUMPDEST PUSH2 0xB73 CALLER PUSH1 0x0 PUSH2 0x1121 JUMP JUMPDEST CALLER PUSH1 0x0 DUP2 DUP2 MSTORE PUSH1 0x3 PUSH1 0x20 MSTORE PUSH1 0x40 DUP1 DUP3 KECCAK256 PUSH1 0x1 ADD DUP1 SLOAD SWAP3 SWAP1 SSTORE MLOAD PUSH4 0xA9059CBB PUSH1 0xE0 SHL DUP2 MSTORE PUSH1 0x4 DUP2 ADD SWAP3 SWAP1 SWAP3 MSTORE PUSH1 0x24 DUP3 ADD DUP2 SWAP1 MSTORE SWAP1 PUSH1 0x1 PUSH1 0x1 PUSH1 0xA0 SHL SUB PUSH32 0x0 AND SWAP1 PUSH4 0xA9059CBB SWAP1 PUSH1 0x44 ADD PUSH1 0x20 PUSH1 0x40 MLOAD DUP1 DUP4 SUB DUP2 PUSH1 0x0 DUP8 GAS CALL ISZERO DUP1 ISZERO PUSH2 0xBF9 JUMPI RETURNDATASIZE PUSH1 0x0 DUP1 RETURNDATACOPY RETURNDATASIZE PUSH1 0x0 REVERT JUMPDEST POP POP POP POP PUSH1 0x40 MLOAD RETURNDATASIZE PUSH1 0x1F NOT PUSH1 0x1F DUP3 ADD AND DUP3 ADD DUP1 PUSH1 0x40 MSTORE POP DUP2 ADD SWAP1 PUSH2 0x5F6 SWAP2 SWAP1 PUSH2 0x173A JUMP JUMPDEST PUSH2 0xC28 CALLER PUSH1 0x0 PUSH2 0x1121 JUMP JUMPDEST CALLER PUSH1 0x0 SWAP1 DUP2 MSTORE PUSH1 0x3 PUSH1 0x20 MSTORE PUSH1 0x40 DUP2 KECCAK256 PUSH1 0x1 ADD DUP1 SLOAD DUP4 SWAP3 SWAP1 PUSH2 0xC4A SWAP1 DUP5 SWAP1 PUSH2 0x1788 JUMP JUMPDEST SWAP1 SWAP2 SSTORE POP POP CALLER PUSH1 0x0 SWAP1 DUP2 MSTORE PUSH1 0x3 PUSH1 0x20 MSTORE PUSH1 0x40 DUP2 KECCAK256 DUP1 SLOAD DUP4 SWAP3 SWAP1 PUSH2 0xC6E SWAP1 DUP5 SWAP1 PUSH2 0x179B JUMP JUMPDEST SWAP1 SWAP2 SSTORE POP POP CALLER PUSH1 0x0 SWAP1 DUP2 MSTORE PUSH1 0x3 PUSH1 0x20 DUP2 DUP2 MSTORE PUSH1 0x40 DUP1 DUP5 KECCAK256 DUP2 MLOAD DUP1 DUP4 ADD SWAP1 SWAP3 MSTORE DUP1 SLOAD DUP3 MSTORE TIMESTAMP DUP3 DUP5 ADD SWAP1 DUP2 MSTORE SWAP4 ADD DUP1 SLOAD PUSH1 0x1 DUP2 DUP2 ADD DUP4 SSTORE SWAP2 DUP7 MSTORE SWAP3 SWAP1 SWAP5 KECCAK256 SWAP1 MLOAD PUSH1 0x2 SWAP1 SWAP3 MUL ADD SWAP1 DUP2 SSTORE SWAP1 MLOAD SWAP2 ADD SSTORE POP JUMP JUMPDEST PUSH1 0x0 SLOAD PUSH1 0x1 PUSH1 0x1 PUSH1 0xA0 SHL SUB AND CALLER EQ PUSH2 0xD17 JUMPI PUSH1 0x40 MLOAD PUSH3 0x461BCD PUSH1 0xE5 SHL DUP2 MSTORE PUSH1 0x20 PUSH1 0x4 DUP3 ADD DUP2 SWAP1 MSTORE PUSH1 0x24 DUP3 ADD MSTORE PUSH32 0x4F776E61626C653A2063616C6C6572206973206E6F7420746865206F776E6572 PUSH1 0x44 DUP3 ADD MSTORE PUSH1 0x64 ADD PUSH2 0x308 JUMP JUMPDEST PUSH1 0x1 PUSH1 0x1 PUSH1 0xA0 SHL SUB DUP2 AND PUSH2 0xD7C JUMPI PUSH1 0x40 MLOAD PUSH3 0x461BCD PUSH1 0xE5 SHL DUP2 MSTORE PUSH1 0x20 PUSH1 0x4 DUP3 ADD MSTORE PUSH1 0x26 PUSH1 0x24 DUP3 ADD MSTORE PUSH32 0x4F776E61626C653A206E6577206F776E657220697320746865207A65726F2061 PUSH1 0x44 DUP3 ADD MSTORE PUSH6 0x646472657373 PUSH1 0xD0 SHL PUSH1 0x64 DUP3 ADD MSTORE PUSH1 0x84 ADD PUSH2 0x308 JUMP JUMPDEST PUSH1 0x0 DUP1 SLOAD PUSH1 0x40 MLOAD PUSH1 0x1 PUSH1 0x1 PUSH1 0xA0 SHL SUB DUP1 DUP6 AND SWAP4 SWAP3 AND SWAP2 PUSH32 0x8BE0079C531659141344CD1FD0A4F28419497F9722A3DAAFE3B4186F6B6457E0 SWAP2 LOG3 PUSH1 0x0 DUP1 SLOAD PUSH1 0x1 PUSH1 0x1 PUSH1 0xA0 SHL SUB NOT AND PUSH1 0x1 PUSH1 0x1 PUSH1 0xA0 SHL SUB SWAP3 SWAP1 SWAP3 AND SWAP2 SWAP1 SWAP2 OR SWAP1 SSTORE JUMP JUMPDEST PUSH2 0xDE2 CALLER PUSH1 0x0 PUSH2 0x1121 JUMP JUMPDEST JUMP JUMPDEST PUSH1 0x0 DUP1 DUP1 PUSH1 0x0 NOT DUP6 DUP8 MULMOD DUP6 DUP8 MUL SWAP3 POP DUP3 DUP2 LT DUP4 DUP3 SUB SUB SWAP2 POP POP DUP1 PUSH1 0x0 SUB PUSH2 0xE1E JUMPI DUP4 DUP3 DUP2 PUSH2 0xE14 JUMPI PUSH2 0xE14 PUSH2 0x17AE JUMP JUMPDEST DIV SWAP3 POP POP POP PUSH2 0xEB0 JUMP JUMPDEST DUP4 DUP2 LT PUSH2 0xE48 JUMPI PUSH1 0x40 MLOAD PUSH4 0x1DCF3063 PUSH1 0xE2 SHL DUP2 MSTORE PUSH1 0x4 DUP2 ADD DUP3 SWAP1 MSTORE PUSH1 0x24 DUP2 ADD DUP6 SWAP1 MSTORE PUSH1 0x44 ADD PUSH2 0x308 JUMP JUMPDEST PUSH1 0x0 DUP5 DUP7 DUP9 MULMOD DUP6 NOT PUSH1 0x1 SWAP1 DUP2 ADD DUP8 AND SWAP7 DUP8 SWAP1 DIV SWAP7 DUP3 DUP7 SUB DUP2 SWAP1 DIV SWAP6 SWAP1 SWAP3 GT SWAP1 SWAP4 SUB PUSH1 0x0 DUP3 SWAP1 SUB SWAP2 SWAP1 SWAP2 DIV SWAP1 SWAP3 ADD SWAP2 SWAP1 SWAP2 MUL SWAP2 SWAP1 SWAP2 OR PUSH1 0x3 DUP5 MUL PUSH1 0x2 SWAP1 DUP2 XOR DUP1 DUP7 MUL DUP3 SUB MUL DUP1 DUP7 MUL DUP3 SUB MUL DUP1 DUP7 MUL DUP3 SUB MUL DUP1 DUP7 MUL DUP3 SUB MUL DUP1 DUP7 MUL DUP3 SUB MUL DUP1 DUP7 MUL SWAP1 SWAP2 SUB MUL MUL SWAP2 POP POP JUMPDEST SWAP4 SWAP3 POP POP POP JUMP JUMPDEST PUSH1 0x1 SLOAD ISZERO PUSH2 0x1040 JUMPI PUSH1 0x40 DUP1 MLOAD DUP2 DUP2 MSTORE PUSH1 0x7 DUP2 DUP4 ADD MSTORE PUSH7 0x17DC995DD85C99 PUSH1 0xCA SHL PUSH1 0x60 DUP3 ADD MSTORE PUSH1 0x20 DUP2 ADD DUP4 SWAP1 MSTORE SWAP1 MLOAD PUSH1 0x0 DUP1 MLOAD PUSH1 0x20 PUSH2 0x17F4 DUP4 CODECOPY DUP2 MLOAD SWAP2 MSTORE SWAP2 DUP2 SWAP1 SUB PUSH1 0x80 ADD SWAP1 LOG1 PUSH1 0x0 PUSH2 0xF10 PUSH4 0x3B9ACA00 DUP4 PUSH1 0x1 SLOAD PUSH2 0xDE4 JUMP JUMPDEST SWAP1 POP PUSH1 0x0 DUP1 MLOAD PUSH1 0x20 PUSH2 0x17F4 DUP4 CODECOPY DUP2 MLOAD SWAP2 MSTORE DUP2 PUSH1 0x40 MLOAD PUSH2 0xF5A SWAP2 SWAP1 PUSH1 0x40 DUP1 DUP3 MSTORE PUSH1 0xE SWAP1 DUP3 ADD MSTORE PUSH14 0x7265776172645065723142465447 PUSH1 0x90 SHL PUSH1 0x60 DUP3 ADD MSTORE PUSH1 0x20 DUP2 ADD SWAP2 SWAP1 SWAP2 MSTORE PUSH1 0x80 ADD SWAP1 JUMP JUMPDEST PUSH1 0x40 MLOAD DUP1 SWAP2 SUB SWAP1 LOG1 PUSH1 0x40 DUP1 MLOAD PUSH1 0x60 DUP2 ADD DUP3 MSTORE DUP4 DUP2 MSTORE PUSH1 0x20 DUP1 DUP3 ADD DUP5 DUP2 MSTORE TIMESTAMP DUP4 DUP6 ADD DUP2 DUP2 MSTORE PUSH1 0x2 DUP1 SLOAD PUSH1 0x1 DUP2 ADD DUP3 SSTORE PUSH1 0x0 SWAP2 SWAP1 SWAP2 MSTORE SWAP5 MLOAD PUSH32 0x405787FA12A823E0F2B7631CC41B3BA8828B3321CA811111FA75CD3AA3BB5ACE PUSH1 0x3 SWAP1 SWAP7 MUL SWAP6 DUP7 ADD SSTORE SWAP2 MLOAD PUSH32 0x405787FA12A823E0F2B7631CC41B3BA8828B3321CA811111FA75CD3AA3BB5ACF DUP6 ADD SSTORE SWAP1 MLOAD PUSH32 0x405787FA12A823E0F2B7631CC41B3BA8828B3321CA811111FA75CD3AA3BB5AD0 SWAP1 SWAP4 ADD SWAP3 SWAP1 SWAP3 SSTORE SWAP2 MLOAD SWAP1 DUP2 MSTORE DUP4 SWAP2 PUSH32 0xE5F54735F9CE2571EEFFC4CE867A47D7CD77AB6CA4D979F9FC33E445A39EBF3E SWAP2 ADD PUSH1 0x40 MLOAD DUP1 SWAP2 SUB SWAP1 LOG2 POP POP JUMP JUMPDEST PUSH1 0x40 DUP1 MLOAD PUSH1 0x60 DUP2 ADD DUP3 MSTORE DUP3 DUP2 MSTORE PUSH1 0x0 PUSH1 0x20 DUP3 ADD DUP2 DUP2 MSTORE TIMESTAMP DUP4 DUP6 ADD DUP2 DUP2 MSTORE PUSH1 0x2 DUP1 SLOAD PUSH1 0x1 DUP2 ADD DUP3 SSTORE SWAP5 MSTORE SWAP4 MLOAD PUSH1 0x3 SWAP1 SWAP4 MUL PUSH32 0x405787FA12A823E0F2B7631CC41B3BA8828B3321CA811111FA75CD3AA3BB5ACE DUP2 ADD SWAP4 SWAP1 SWAP4 SSTORE SWAP1 MLOAD PUSH32 0x405787FA12A823E0F2B7631CC41B3BA8828B3321CA811111FA75CD3AA3BB5ACF DUP4 ADD SSTORE SWAP2 MLOAD PUSH32 0x405787FA12A823E0F2B7631CC41B3BA8828B3321CA811111FA75CD3AA3BB5AD0 SWAP1 SWAP2 ADD SSTORE SWAP1 MLOAD DUP3 SWAP2 PUSH32 0xE5F54735F9CE2571EEFFC4CE867A47D7CD77AB6CA4D979F9FC33E445A39EBF3E SWAP2 PUSH2 0x1116 SWAP2 DUP2 MSTORE PUSH1 0x20 ADD SWAP1 JUMP JUMPDEST PUSH1 0x40 MLOAD DUP1 SWAP2 SUB SWAP1 LOG2 POP JUMP JUMPDEST PUSH1 0x0 DUP2 PUSH1 0x1 DUP2 GT ISZERO PUSH2 0x1135 JUMPI PUSH2 0x1135 PUSH2 0x175C JUMP JUMPDEST SUB PUSH2 0x5F6 JUMPI PUSH1 0x1 PUSH1 0x1 PUSH1 0xA0 SHL SUB DUP3 AND PUSH1 0x0 SWAP1 DUP2 MSTORE PUSH1 0x3 PUSH1 0x20 MSTORE PUSH1 0x40 DUP2 KECCAK256 PUSH1 0x2 ADD SLOAD PUSH2 0x115F SWAP1 PUSH2 0x14BA JUMP JUMPDEST SWAP1 POP PUSH1 0x0 DUP1 MLOAD PUSH1 0x20 PUSH2 0x17F4 DUP4 CODECOPY DUP2 MLOAD SWAP2 MSTORE DUP2 PUSH1 0x40 MLOAD PUSH2 0x11A6 SWAP2 SWAP1 PUSH1 0x40 DUP1 DUP3 MSTORE PUSH1 0xB SWAP1 DUP3 ADD MSTORE PUSH11 0x7374617274496E6465783D PUSH1 0xA8 SHL PUSH1 0x60 DUP3 ADD MSTORE PUSH1 0x20 DUP2 ADD SWAP2 SWAP1 SWAP2 MSTORE PUSH1 0x80 ADD SWAP1 JUMP JUMPDEST PUSH1 0x40 MLOAD DUP1 SWAP2 SUB SWAP1 LOG1 PUSH1 0x0 DUP2 JUMPDEST PUSH1 0x2 SLOAD DUP2 LT ISZERO PUSH2 0x141C JUMPI PUSH1 0x0 PUSH2 0x11EC DUP7 PUSH1 0x2 DUP5 DUP2 SLOAD DUP2 LT PUSH2 0x11D5 JUMPI PUSH2 0x11D5 PUSH2 0x17C4 JUMP JUMPDEST SWAP1 PUSH1 0x0 MSTORE PUSH1 0x20 PUSH1 0x0 KECCAK256 SWAP1 PUSH1 0x3 MUL ADD PUSH1 0x2 ADD SLOAD PUSH2 0x153A JUMP JUMPDEST SWAP1 POP PUSH1 0x0 DUP1 MLOAD PUSH1 0x20 PUSH2 0x17F4 DUP4 CODECOPY DUP2 MLOAD SWAP2 MSTORE DUP2 PUSH1 0x40 MLOAD PUSH2 0x1250 SWAP2 SWAP1 PUSH1 0x40 DUP1 DUP3 MSTORE PUSH1 0x22 SWAP1 DUP3 ADD MSTORE PUSH32 0x7374616B65686F6C6465725374616B65496E646578417452657761726454696D PUSH1 0x60 DUP3 ADD MSTORE PUSH2 0x653D PUSH1 0xF0 SHL PUSH1 0x80 DUP3 ADD MSTORE PUSH1 0x20 DUP2 ADD SWAP2 SWAP1 SWAP2 MSTORE PUSH1 0xA0 ADD SWAP1 JUMP JUMPDEST PUSH1 0x40 MLOAD DUP1 SWAP2 SUB SWAP1 LOG1 PUSH1 0x1 PUSH1 0x1 PUSH1 0xA0 SHL SUB DUP7 AND PUSH1 0x0 SWAP1 DUP2 MSTORE PUSH1 0x3 PUSH1 0x20 DUP2 SWAP1 MSTORE PUSH1 0x40 DUP3 KECCAK256 ADD DUP1 SLOAD DUP4 SWAP1 DUP2 LT PUSH2 0x1285 JUMPI PUSH2 0x1285 PUSH2 0x17C4 JUMP JUMPDEST SWAP1 PUSH1 0x0 MSTORE PUSH1 0x20 PUSH1 0x0 KECCAK256 SWAP1 PUSH1 0x2 MUL ADD PUSH1 0x0 ADD SLOAD SWAP1 POP PUSH1 0x0 DUP1 MLOAD PUSH1 0x20 PUSH2 0x17F4 DUP4 CODECOPY DUP2 MLOAD SWAP2 MSTORE DUP2 PUSH1 0x40 MLOAD PUSH2 0x12F0 SWAP2 SWAP1 PUSH1 0x40 DUP1 DUP3 MSTORE PUSH1 0x1D SWAP1 DUP3 ADD MSTORE PUSH32 0x7374616B65686F6C6465725374616B65417452657761726474696D653D000000 PUSH1 0x60 DUP3 ADD MSTORE PUSH1 0x20 DUP2 ADD SWAP2 SWAP1 SWAP2 MSTORE PUSH1 0x80 ADD SWAP1 JUMP JUMPDEST PUSH1 0x40 MLOAD DUP1 SWAP2 SUB SWAP1 LOG1 PUSH1 0x0 DUP1 MLOAD PUSH1 0x20 PUSH2 0x17F4 DUP4 CODECOPY DUP2 MLOAD SWAP2 MSTORE PUSH1 0x2 DUP5 DUP2 SLOAD DUP2 LT PUSH2 0x131A JUMPI PUSH2 0x131A PUSH2 0x17C4 JUMP JUMPDEST SWAP1 PUSH1 0x0 MSTORE PUSH1 0x20 PUSH1 0x0 KECCAK256 SWAP1 PUSH1 0x3 MUL ADD PUSH1 0x1 ADD SLOAD PUSH1 0x40 MLOAD PUSH2 0x1373 SWAP2 SWAP1 PUSH1 0x40 DUP1 DUP3 MSTORE PUSH1 0x1E SWAP1 DUP3 ADD MSTORE PUSH32 0x726577617264734C6973745B695D2E72657761726450657231424654473D0000 PUSH1 0x60 DUP3 ADD MSTORE PUSH1 0x20 DUP2 ADD SWAP2 SWAP1 SWAP2 MSTORE PUSH1 0x80 ADD SWAP1 JUMP JUMPDEST PUSH1 0x40 MLOAD DUP1 SWAP2 SUB SWAP1 LOG1 PUSH2 0x13AE PUSH1 0x2 DUP5 DUP2 SLOAD DUP2 LT PUSH2 0x1391 JUMPI PUSH2 0x1391 PUSH2 0x17C4 JUMP JUMPDEST SWAP1 PUSH1 0x0 MSTORE PUSH1 0x20 PUSH1 0x0 KECCAK256 SWAP1 PUSH1 0x3 MUL ADD PUSH1 0x1 ADD SLOAD DUP3 PUSH4 0x3B9ACA00 PUSH2 0xDE4 JUMP JUMPDEST PUSH2 0x13B8 SWAP1 DUP6 PUSH2 0x179B JUMP JUMPDEST SWAP4 POP PUSH1 0x0 DUP1 MLOAD PUSH1 0x20 PUSH2 0x17F4 DUP4 CODECOPY DUP2 MLOAD SWAP2 MSTORE DUP5 PUSH1 0x40 MLOAD PUSH2 0x13FF SWAP2 SWAP1 PUSH1 0x40 DUP1 DUP3 MSTORE PUSH1 0xB SWAP1 DUP3 ADD MSTORE PUSH11 0x7265776172647353756D3D PUSH1 0xA8 SHL PUSH1 0x60 DUP3 ADD MSTORE PUSH1 0x20 DUP2 ADD SWAP2 SWAP1 SWAP2 MSTORE PUSH1 0x80 ADD SWAP1 JUMP JUMPDEST PUSH1 0x40 MLOAD DUP1 SWAP2 SUB SWAP1 LOG1 POP POP DUP1 DUP1 PUSH2 0x1414 SWAP1 PUSH2 0x17DA JUMP JUMPDEST SWAP2 POP POP PUSH2 0x11B2 JUMP JUMPDEST POP PUSH1 0x40 DUP1 MLOAD DUP2 DUP2 MSTORE PUSH1 0x11 DUP2 DUP4 ADD MSTORE PUSH17 0x66696E616C207265776172647353756D3D PUSH1 0x78 SHL PUSH1 0x60 DUP3 ADD MSTORE PUSH1 0x20 DUP2 ADD DUP4 SWAP1 MSTORE SWAP1 MLOAD PUSH1 0x0 DUP1 MLOAD PUSH1 0x20 PUSH2 0x17F4 DUP4 CODECOPY DUP2 MLOAD SWAP2 MSTORE SWAP2 DUP2 SWAP1 SUB PUSH1 0x80 ADD SWAP1 LOG1 PUSH1 0x1 PUSH1 0x1 PUSH1 0xA0 SHL SUB DUP5 AND PUSH1 0x0 SWAP1 DUP2 MSTORE PUSH1 0x3 PUSH1 0x20 MSTORE PUSH1 0x40 DUP2 KECCAK256 PUSH1 0x1 ADD DUP1 SLOAD DUP4 SWAP3 SWAP1 PUSH2 0x1490 SWAP1 DUP5 SWAP1 PUSH2 0x179B JUMP JUMPDEST SWAP1 SWAP2 SSTORE POP POP POP PUSH1 0x1 PUSH1 0x1 PUSH1 0xA0 SHL SUB DUP4 AND PUSH1 0x0 SWAP1 DUP2 MSTORE PUSH1 0x3 PUSH1 0x20 MSTORE PUSH1 0x40 SWAP1 KECCAK256 TIMESTAMP PUSH1 0x2 SWAP1 SWAP2 ADD SSTORE POP POP POP JUMP JUMPDEST PUSH1 0x2 SLOAD PUSH1 0x0 SWAP1 DUP2 SWAP1 PUSH2 0x14CD JUMPI PUSH1 0x0 PUSH2 0x14DC JUMP JUMPDEST PUSH1 0x2 SLOAD PUSH2 0x14DC SWAP1 PUSH1 0x1 SWAP1 PUSH2 0x1788 JUMP JUMPDEST SWAP1 POP JUMPDEST DUP3 PUSH1 0x2 DUP3 DUP2 SLOAD DUP2 LT PUSH2 0x14F3 JUMPI PUSH2 0x14F3 PUSH2 0x17C4 JUMP JUMPDEST SWAP1 PUSH1 0x0 MSTORE PUSH1 0x20 PUSH1 0x0 KECCAK256 SWAP1 PUSH1 0x3 MUL ADD PUSH1 0x2 ADD SLOAD LT ISZERO DUP1 ISZERO PUSH2 0x1512 JUMPI POP DUP1 ISZERO ISZERO JUMPDEST ISZERO PUSH2 0x1520 JUMPI PUSH1 0x0 NOT ADD PUSH2 0x14DF JUMP JUMPDEST PUSH1 0x0 DUP2 GT PUSH2 0x152F JUMPI PUSH1 0x1 PUSH2 0xEB0 JUMP JUMPDEST PUSH2 0xEB0 DUP2 PUSH1 0x1 PUSH2 0x179B JUMP JUMPDEST PUSH1 0x1 PUSH1 0x1 PUSH1 0xA0 SHL SUB DUP3 AND PUSH1 0x0 SWAP1 DUP2 MSTORE PUSH1 0x3 PUSH1 0x20 DUP2 SWAP1 MSTORE PUSH1 0x40 DUP3 KECCAK256 ADD SLOAD DUP2 SWAP1 PUSH2 0x1563 JUMPI PUSH1 0x0 PUSH2 0x158C JUMP JUMPDEST PUSH1 0x1 PUSH1 0x1 PUSH1 0xA0 SHL SUB DUP5 AND PUSH1 0x0 SWAP1 DUP2 MSTORE PUSH1 0x3 PUSH1 0x20 DUP2 SWAP1 MSTORE PUSH1 0x40 SWAP1 SWAP2 KECCAK256 ADD SLOAD PUSH2 0x158C SWAP1 PUSH1 0x1 SWAP1 PUSH2 0x1788 JUMP JUMPDEST SWAP1 POP JUMPDEST DUP3 PUSH1 0x3 PUSH1 0x0 DUP7 PUSH1 0x1 PUSH1 0x1 PUSH1 0xA0 SHL SUB AND PUSH1 0x1 PUSH1 0x1 PUSH1 0xA0 SHL SUB AND DUP2 MSTORE PUSH1 0x20 ADD SWAP1 DUP2 MSTORE PUSH1 0x20 ADD PUSH1 0x0 KECCAK256 PUSH1 0x3 ADD DUP3 DUP2 SLOAD DUP2 LT PUSH2 0x15C9 JUMPI PUSH2 0x15C9 PUSH2 0x17C4 JUMP JUMPDEST SWAP1 PUSH1 0x0 MSTORE PUSH1 0x20 PUSH1 0x0 KECCAK256 SWAP1 PUSH1 0x2 MUL ADD PUSH1 0x1 ADD SLOAD GT DUP1 ISZERO PUSH2 0x15E7 JUMPI POP DUP1 ISZERO ISZERO JUMPDEST ISZERO PUSH2 0x15F5 JUMPI PUSH1 0x0 NOT ADD PUSH2 0x158F JUMP JUMPDEST PUSH1 0x0 DUP2 GT PUSH2 0x1604 JUMPI PUSH1 0x0 PUSH2 0x1606 JUMP JUMPDEST DUP1 JUMPDEST SWAP2 POP POP JUMPDEST SWAP3 SWAP2 POP POP JUMP JUMPDEST PUSH1 0x0 PUSH1 0x20 DUP3 DUP5 SUB SLT ISZERO PUSH2 0x1622 JUMPI PUSH1 0x0 DUP1 REVERT JUMPDEST DUP2 CALLDATALOAD PUSH1 0x1 PUSH1 0x1 PUSH1 0xA0 SHL SUB DUP2 AND DUP2 EQ PUSH2 0x1604 JUMPI PUSH1 0x0 DUP1 REVERT JUMPDEST PUSH1 0x0 DUP1 PUSH1 0x40 DUP4 DUP6 SUB SLT ISZERO PUSH2 0x164C JUMPI PUSH1 0x0 DUP1 REVERT JUMPDEST DUP3 CALLDATALOAD SWAP2 POP PUSH1 0x20 DUP4 ADD CALLDATALOAD PUSH1 0x2 DUP2 LT PUSH2 0x1662 JUMPI PUSH1 0x0 DUP1 REVERT JUMPDEST DUP1 SWAP2 POP POP SWAP3 POP SWAP3 SWAP1 POP JUMP JUMPDEST PUSH1 0x0 PUSH1 0x20 DUP3 DUP5 SUB SLT ISZERO PUSH2 0x167F JUMPI PUSH1 0x0 DUP1 REVERT JUMPDEST POP CALLDATALOAD SWAP2 SWAP1 POP JUMP JUMPDEST PUSH1 0x20 DUP1 DUP3 MSTORE DUP3 MLOAD DUP3 DUP3 ADD DUP2 SWAP1 MSTORE PUSH1 0x0 SWAP2 SWAP1 PUSH1 0x40 SWAP1 DUP2 DUP6 ADD SWAP1 DUP7 DUP5 ADD DUP6 JUMPDEST DUP3 DUP2 LT ISZERO PUSH2 0x16C8 JUMPI DUP2 MLOAD DUP1 MLOAD DUP6 MSTORE DUP7 ADD MLOAD DUP7 DUP6 ADD MSTORE SWAP3 DUP5 ADD SWAP3 SWAP1 DUP6 ADD SWAP1 PUSH1 0x1 ADD PUSH2 0x16A3 JUMP JUMPDEST POP SWAP2 SWAP8 SWAP7 POP POP POP POP POP POP POP JUMP JUMPDEST PUSH1 0x20 DUP1 DUP3 MSTORE DUP3 MLOAD DUP3 DUP3 ADD DUP2 SWAP1 MSTORE PUSH1 0x0 SWAP2 SWAP1 PUSH1 0x40 SWAP1 DUP2 DUP6 ADD SWAP1 DUP7 DUP5 ADD DUP6 JUMPDEST DUP3 DUP2 LT ISZERO PUSH2 0x16C8 JUMPI DUP2 MLOAD DUP1 MLOAD DUP6 MSTORE DUP7 DUP2 ADD MLOAD DUP8 DUP7 ADD MSTORE DUP6 ADD MLOAD DUP6 DUP6 ADD MSTORE PUSH1 0x60 SWAP1 SWAP4 ADD SWAP3 SWAP1 DUP6 ADD SWAP1 PUSH1 0x1 ADD PUSH2 0x16F2 JUMP JUMPDEST PUSH1 0x0 PUSH1 0x20 DUP3 DUP5 SUB SLT ISZERO PUSH2 0x1733 JUMPI PUSH1 0x0 DUP1 REVERT JUMPDEST POP MLOAD SWAP2 SWAP1 POP JUMP JUMPDEST PUSH1 0x0 PUSH1 0x20 DUP3 DUP5 SUB SLT ISZERO PUSH2 0x174C JUMPI PUSH1 0x0 DUP1 REVERT JUMPDEST DUP2 MLOAD DUP1 ISZERO ISZERO DUP2 EQ PUSH2 0x1604 JUMPI PUSH1 0x0 DUP1 REVERT JUMPDEST PUSH4 0x4E487B71 PUSH1 0xE0 SHL PUSH1 0x0 MSTORE PUSH1 0x21 PUSH1 0x4 MSTORE PUSH1 0x24 PUSH1 0x0 REVERT JUMPDEST PUSH4 0x4E487B71 PUSH1 0xE0 SHL PUSH1 0x0 MSTORE PUSH1 0x11 PUSH1 0x4 MSTORE PUSH1 0x24 PUSH1 0x0 REVERT JUMPDEST DUP2 DUP2 SUB DUP2 DUP2 GT ISZERO PUSH2 0x160A JUMPI PUSH2 0x160A PUSH2 0x1772 JUMP JUMPDEST DUP1 DUP3 ADD DUP1 DUP3 GT ISZERO PUSH2 0x160A JUMPI PUSH2 0x160A PUSH2 0x1772 JUMP JUMPDEST PUSH4 0x4E487B71 PUSH1 0xE0 SHL PUSH1 0x0 MSTORE PUSH1 0x12 PUSH1 0x4 MSTORE PUSH1 0x24 PUSH1 0x0 REVERT JUMPDEST PUSH4 0x4E487B71 PUSH1 0xE0 SHL PUSH1 0x0 MSTORE PUSH1 0x32 PUSH1 0x4 MSTORE PUSH1 0x24 PUSH1 0x0 REVERT JUMPDEST PUSH1 0x0 PUSH1 0x1 DUP3 ADD PUSH2 0x17EC JUMPI PUSH2 0x17EC PUSH2 0x1772 JUMP JUMPDEST POP PUSH1 0x1 ADD SWAP1 JUMP INVALID 0xDD SWAP8 0xD 0xD9 0xB5 0xBF 0xE7 SMOD SWAP3 0x21 SSTORE 0xB0 PC LOG4 SMOD PUSH6 0x5CB18288B807 0xE2 0x21 PUSH5 0x42BCA8AD83 0xD6 0xB5 LOG2 PUSH5 0x6970667358 0x22 SLT KECCAK256 0xAD PUSH9 0xD79602287353E6A524 SELFDESTRUCT INVALID PUSH30 0xCAC829ED598F43F125D2A5685D704E9DAFC564736F6C6343000811003300 ",
  "sha1": "a3ccff8542fdd5c54bc5becdf1ca4a3bfea10e5a",
  "source": "// SPDX-License-Identifier: MIT\npragma solidity 0.8.17;\n\nimport \"OpenZeppelin/openzeppelin-contracts@4.1.0/contracts/token/ERC20/IERC20.sol\";\nimport \"OpenZeppelin/openzeppelin-contracts@4.1.0/contracts/access/Ownable.sol\";\nimport \"paulrberg/prb-math@2.5.0/contracts/PRBMath.sol\";\n\n\ncontract FTGStaking is Ownable {\n    IERC20 public immutable ftgToken;\n\n    //Can be new stake or unstake\n    struct Staking {\n        uint256 totalStaked;\n        uint256 timestamp;\n    }\n\n    struct Stakeholder {\n        uint256 totalStaked;\n        uint256 totalReward;\n        uint256 lastRewardUpdate;\n        Staking[] flexStakes;\n    }\n\n    struct Reward {\n        uint256 rewards;\n        uint256 rewardPer1BFTG;\n        uint256 timestamp;\n    }\n\n    uint256 public totalFTGStaked;\n\n    enum StakeType {\n        FLEX,\n        LOCK30DAYS\n    }\n\n    Reward[] public rewardsList;\n\n    mapping(address => Stakeholder) public stakeholders;\n\n    event NewStake(address indexed user, uint256 amount, uint256 timestamp);\n    event NewUnstake(address indexed user, uint256 amount, uint256 timestamp);\n    event NewReward(uint256 indexed amount, uint256 timestamp);\n    //event For debugging\n    event Log(string message, uint256 data);\n\n    constructor(address _stakingToken) {\n        ftgToken = IERC20(_stakingToken);\n    }\n\n    // To register a new reward deposit or fee\n    function _addNewReward(uint256 _reward) private {\n        if (totalFTGStaked != 0) {\n            emit Log(\"_reward\", _reward);\n            uint256 rewardPer1BFTG = PRBMath.mulDiv(\n                1_000_000_000,// TODO whats this number?\n                _reward,\n                totalFTGStaked\n            );\n            emit Log(\"rewardPer1BFTG\", rewardPer1BFTG);\n            rewardsList.push(Reward(_reward, rewardPer1BFTG, block.timestamp));\n            emit NewReward(_reward, block.timestamp);\n        } else {\n            rewardsList.push(Reward(_reward, 0, block.timestamp));\n            emit NewReward(_reward, block.timestamp);\n        }\n    }\n\n    // to retrieve the first reward index to add from last updated time\n    function _getfirstRewardsIndexToAdd(uint256 lastUpdateTime)\n        private\n        view\n        returns (uint256)\n    {\n        uint256 i = rewardsList.length > 0 ? rewardsList.length - 1 : 0;\n        /* emit Log(\"i0=\",i);\n        emit Log(\"rewardsList[i].timestam\",rewardsList[i].timestamp); */\n        while (rewardsList[i].timestamp >= lastUpdateTime && i != 0) {\n            unchecked {\n                --i;\n            }\n            // emit Log(\"i=\",i);\n        }\n        return i > 0 ? i + 1 : 1;\n    }\n\n    // to retrieve the stakeholder's stake at a certain reward time\n    function _getStakeHolderStakeIndexAtRewardTime(\n        address _stakeholderAddress,\n        uint256 _time\n    ) private view returns (uint256) {\n        uint256 i = stakeholders[_stakeholderAddress].flexStakes.length > 0\n            ? stakeholders[_stakeholderAddress].flexStakes.length - 1\n            : 0;\n        while (\n            stakeholders[_stakeholderAddress].flexStakes[i].timestamp > _time &&\n            i != 0\n        ) {\n            unchecked {\n                --i;\n            }\n        }\n        return i > 0 ? i : 0;\n    }\n\n    // to update the reward balance of a stakeholder\n    function _updateStakeholderReward(\n        address _stakeholderAddress,\n        StakeType _stakeType\n    ) private {\n        if (_stakeType == StakeType.FLEX) {\n            uint256 startIndex = _getfirstRewardsIndexToAdd(\n                stakeholders[_stakeholderAddress].lastRewardUpdate\n            );\n            emit Log(\"startIndex=\", startIndex);\n            uint256 rewardsSum = 0;\n            for (uint256 i = startIndex; i < rewardsList.length; i++) {\n                uint256 stakeholderStakeIndexAtRewardTime = _getStakeHolderStakeIndexAtRewardTime(\n                        _stakeholderAddress,\n                        rewardsList[i].timestamp\n                    );\n                emit Log(\n                    \"stakeholderStakeIndexAtRewardTime=\",\n                    stakeholderStakeIndexAtRewardTime\n                );\n                uint256 stakeholderStakeAtRewardtime = stakeholders[\n                    _stakeholderAddress\n                ].flexStakes[stakeholderStakeIndexAtRewardTime].totalStaked;\n                emit Log(\n                    \"stakeholderStakeAtRewardtime=\",\n                    stakeholderStakeAtRewardtime\n                );\n                emit Log(\n                    \"rewardsList[i].rewardPer1BFTG=\",\n                    rewardsList[i].rewardPer1BFTG\n                );\n                rewardsSum += PRBMath.mulDiv(\n                    rewardsList[i].rewardPer1BFTG,\n                    stakeholderStakeAtRewardtime,\n                    1_000_000_000 // TODO whats this number?\n                );\n                emit Log(\"rewardsSum=\", rewardsSum);\n            }\n            emit Log(\"final rewardsSum=\", rewardsSum);\n            stakeholders[_stakeholderAddress].totalReward += rewardsSum;\n            stakeholders[_stakeholderAddress].lastRewardUpdate = block\n                .timestamp;\n        }\n    }\n\n    // stake ftg token \n    function stake(uint256 _amount, StakeType _stakeType) public {\n        // Check that user does not stake 0\n        require(_amount > 0, \"Cannot stake nothing\");\n        // Check staker's balance is enough\n        require(\n            _amount < ftgToken.balanceOf(msg.sender),\n            \"Insufficient FTG Balance\"\n        );\n\n        // Transfer of ftg token to the staking Contract (contract need to be approved first)\n        ftgToken.transferFrom(msg.sender, address(this), _amount);\n\n        if (_stakeType == StakeType.FLEX) {\n            // first staking ?\n            uint256 fee;\n            if (stakeholders[msg.sender].flexStakes.length == 0) {\n                // calculate initial fee\n                fee = PRBMath.mulDiv(5, _amount, 100);\n                _addNewReward(fee);\n            }\n            uint256 amountStaked = _amount - fee;\n            // Add stake's amount to stakeholder's totalStaked\n            stakeholders[msg.sender].totalStaked += amountStaked;\n            totalFTGStaked += amountStaked;\n            emit Log(\"totalFTGStaked\", totalFTGStaked);\n            // Add the new Stake to the stakeholder's stakes List\n            stakeholders[msg.sender].flexStakes.push(\n                Staking(stakeholders[msg.sender].totalStaked, block.timestamp)\n            );\n\n            // Emit a NewStake event\n            emit NewStake(msg.sender, amountStaked, block.timestamp);\n        }\n        //\n    }\n\n    //function to deposit reward\n    function depositReward(uint256 _amount) external {\n        _addNewReward(_amount);\n    }\n\n    //public function to update Rewards\n    function updateReward() public {\n        _updateStakeholderReward(msg.sender, StakeType.FLEX);\n    }\n\n    // function called by stakeholder to unstake ftg\n    function unstake(uint256 _amount, StakeType _stakeType) public {\n        if (_stakeType == StakeType.FLEX) {\n            //verify that stakeholder has staking\n            require(stakeholders[msg.sender].totalStaked != 0, \"No FTG staked\");\n            //if amount exceeds totalStaked, we withdraw everything?\n            if (_amount >= stakeholders[msg.sender].totalStaked) {\n                //stakeholder is only partly withdrawing his staking balance\n                uint256 amountToUnstake = stakeholders[msg.sender].totalStaked;\n                totalFTGStaked -= amountToUnstake;\n                stakeholders[msg.sender].totalStaked = 0;\n                stakeholders[msg.sender].flexStakes.push(\n                    Staking(0, block.timestamp)\n                );\n                // unstaking 2%(?) fee\n                uint256 fee = PRBMath.mulDiv(2, amountToUnstake, 100);\n                _addNewReward(fee);\n                ftgToken.transfer(msg.sender, amountToUnstake - fee);\n                emit NewUnstake(\n                    msg.sender,\n                    stakeholders[msg.sender].totalStaked,\n                    block.timestamp\n                );\n            } else {\n                //stakeholder is only partly withdrawing his staking balance\n                stakeholders[msg.sender].totalStaked -= _amount;\n                stakeholders[msg.sender].flexStakes.push(\n                    Staking(\n                        stakeholders[msg.sender].totalStaked,\n                        block.timestamp\n                    )\n                );\n                totalFTGStaked -= _amount;\n                // unstaking 2%(?) fee\n                uint256 fee = PRBMath.mulDiv(2, _amount, 100);\n                _addNewReward(fee);\n                ftgToken.transfer(msg.sender, _amount - fee);\n                emit NewUnstake(msg.sender, _amount, block.timestamp);\n            }\n        }\n    }\n\n    // function for the stakeholder to withdraw his accumulated rewards\n    function withdrawReward() public {\n        // firstly update reward balance\n        _updateStakeholderReward(msg.sender, StakeType.FLEX);\n        // transfer rewards to stakeholder's account\n        uint256 rewardToWithdraw = stakeholders[msg.sender].totalReward;\n        stakeholders[msg.sender].totalReward = 0;\n        ftgToken.transfer(msg.sender, rewardToWithdraw);\n    }\n\n    // function for the stakeholder to stake his accumulated rewards\n    function stakeReward(uint256 _amount) public {\n        // firstly update reward balance\n        _updateStakeholderReward(msg.sender, StakeType.FLEX);\n        // transfer reward balance to the staking balance\n        stakeholders[msg.sender].totalReward -= _amount;\n        stakeholders[msg.sender].totalStaked += _amount;\n        stakeholders[msg.sender].flexStakes.push(\n            Staking(stakeholders[msg.sender].totalStaked, block.timestamp)\n        );\n    }\n\n    // returns the rewardsList array\n    function viewRewardsList() public view returns (Reward[] memory) {\n        return rewardsList;\n    }\n\n    // returns the stakeholder's flexStakes array\n    function getStakes(address _stakeholderAddress)\n        public\n        view\n        returns (Staking[] memory)\n    {\n        return stakeholders[_stakeholderAddress].flexStakes;\n    }\n\n    // returns the stakeholder's last updated reward\n    function getAccountRewardInfo(address _stakeholderAddress)\n        public\n        view\n        returns (uint256, uint256)\n    {\n        return (\n            stakeholders[_stakeholderAddress].totalReward,\n            stakeholders[_stakeholderAddress].lastRewardUpdate\n        );\n    }\n\n}\n",
  "sourcePath": "contracts/FTGStaking.sol",
  "type": "contract"
}